:020000040007F3
:10600000DFF80CD000F0BCF8004800471D85070001
:10601000F821002004207146084202D0EFF30980E5
:1060200001E0EFF308807146004A1047856A0700D7
:1060300014484FF0590101604FF0160101604FF014
:10604000880101601048416841F4804141600F4877
:10605000416841F002014160416841F00401416042
:106060000B48804707484FF000010160094800478E
:10607000FEE7FEE7FEE7FEE7FEE7FEE7FEE7FEE7F8
:10608000FEE7FEE700010040000200400070004013
:1060900011710700016007002DE9F05F054600203F
:1060A00092469B4688460646814640241BE0284689
:1060B00041464746224600F053F853465A46C01A16
:1060C000914110D311461846224600F03AF82D1A95
:1060D00067EB01084F4622460120002100F031F80D
:1060E00017EB00094E41201EA4F10104DFDC4846F5
:1060F00031462A464346BDE8F09F40EA01039B072C
:1061000003D009E008C9121F08C0042AFAD203E02C
:1061100011F8013B00F8013B521EF9D27047D2B290
:1061200001E000F8012B491EFBD270470022F6E780
:1061300010B513460A4604461946FFF7F0FF2046FD
:1061400010BD202A04DB203A00FA02F1002070473B
:106150009140C2F1200320FA03F3194390407047A5
:10616000202A04DB203A21FA02F00021704721FAAC
:1061700002F3D040C2F12002914008431946704713
:10618000064C074D06E0E06840F0010394E8070084
:1061900098471034AC42F6D3FFF736FF348A070035
:1061A000548A070070B58C1810F8015B15F00703CE
:1061B00001D110F8013B2A1106D110F8012B03E0A0
:1061C00010F8016B01F8016B5B1EF9D12B0705D4A8
:1061D0000023521E0DD401F8013BFAE710F8013BF1
:1061E000CB1A921C03E013F8015B01F8015B521E0D
:1061F000F9D5A142D8D3002070BD000010B54FF0F2
:106200008040406E20F070404FF080414866002290
:10621000C913024800F076FB10BD00008041004029
:1062200010B50022002100F01F04012303FA04F23C
:106230000449032303EA907301EB83010B681343C2
:106240000B6010BD0402004010B500F02FFF0148A4
:10625000006810BD000000200449096801F0010138
:1062600009B1034800E00020704700000002004030
:10627000001BB7000449096801F00201022901D19D
:10628000880300E0002070470002004010B500F0D5
:106290000DFF1A48006800F0070010B9184804689C
:1062A00029E01648006800F00700012803D11448CF
:1062B000006844081FE01148006800F00700022849
:1062C00003D10F480068840815E00C48006800F00E
:1062D0000700032803D10A480068C4080BE00748F8
:1062E000006800F00700042803D10548006804098D
:1062F00001E003480468204610BD0000340200405D
:106300000000002010B500F0D1FE1A48006800F02F
:10631000700010B91848046829E01648006800F0B9
:106320007000102803D11448006844081FE0114889
:10633000006800F07000202803D10F48006884082E
:1063400015E00C48006800F07000302803D10A48BE
:106350000068C4080BE00748006800F0700040289F
:1063600003D105480068040901E003480468204699
:1063700010BD00003402004000000020F8B50020ED
:1063800018A636680096184E316801F4A02606B1AA
:1063900027E001F40036B6F5003F09D101F40026EC
:1063A000B6F5002F01D1114A00E0104A104618E05E
:1063B00001F40026B6F5002F01D10C4A00E00B4A8B
:1063C000C1F381371DF80740C1F30806B31CC1F3C0
:1063D0004426751C96085E4315FB04F7B6FBF7F6DA
:1063E000F000F8BD0102020440020040001BB700AB
:1063F000F0B500230024C0F38725002D4CD0304D8C
:106400002D68EDB2012D2AD1C0F38145022D06D1B0
:1064100000F01F051F2D02D1294C343433E0C0F3A6
:106420008145022D06D100F01F051D2D02D1244CFF
:10643000343428E0C0F38145022D02D1204C383499
:1064400021E0C0F38145032D02D11D4C3C341AE0FC
:10645000C0F381451A4E2C3606EB850413E0C0F3D9
:106460008145022D02D1164C38340CE0C0F3814531
:10647000032D02D1124C3C3405E0C0F38145104E8F
:106480002C3606EB85042568C0F38726C0F3441735
:10649000BE40B54315432560C0F3426575B1C0F3F6
:1064A0000175074E1C3606EB85031D68C0F3426676
:1064B000C0F30457BE40B5430D431D60F0BD00005E
:1064C000F40100400F49096801F04041B1F1004F6B
:1064D00008D0B1F1404F09D019B1B1F1804F0CD1C2
:1064E00007E000BF0749C96888B208E00549C868E5
:1064F00005E00449C968C8B201E0002000BF00BF40
:10650000704700000010034030B5074CA26040EA1D
:1065100001041C4344F00104034D2C602C46246804
:1065200044F002042C6030BD001003402DE9F0411E
:1065300006460D46002700241AE0321902F5805164
:1065400030190E4A00F080FC281BB0F5805F07D39D
:106550004FF48051094800F013F8384487B205E041
:10656000291B064800F00CF8384487B204F5805423
:10657000AC42E2D33846BDE8F0810000F4010020CF
:1065800010B502460B460020002103E0545C044491
:10659000A0B2491C9942F9DB10BD000010B5224899
:1065A00000F03EFD4FF4E131204800F0CFFE142111
:1065B0001E4800F06BFF1D48806820F010001B494A
:1065C00088600846806840F020008860084640687F
:1065D00040F61101084315494860242000F068FA8C
:1065E000FFF732FE0446214611A001F015FCFFF72B
:1065F00033FE0446214619A001F00EFCFFF73AFED7
:106600000446214620A001F007FCFFF73FFE0446A8
:10661000214628A001F000FCFFF774FE0446214645
:106620002FA001F0F9FB10BD10000004000007408E
:106630001B5B313B33366D5B4C44524F4D5D0D0A55
:10664000434C4B5F47657443505546726571203A21
:10665000202538640D0A1B5B306D00001B5B313B4D
:1066600033366D5B4C44524F4D5D434C4B5F476539
:106670007448585446726571203A202538640D0AD2
:106680001B5B306D000000001B5B313B33366D5BE4
:106690004C44524F4D5D434C4B5F4765744C5854CE
:1066A00046726571203A202538640D0A1B5B306DF7
:1066B000000000001B5B313B33366D5B4C44524F96
:1066C0004D5D434C4B5F47657450434C4B304672B5
:1066D0006571203A202538640D0A1B5B306D00007F
:1066E0001B5B313B33366D5B4C44524F4D5D434C2D
:1066F0004B5F47657450434C4B3146726571203A8D
:10670000202538640D0A1B5B306D000010B507486A
:1067100000680749441840220649204601F000F964
:1067200040200249091D086010BD000020050C40F2
:1067300000010C40B401002010B508480068084969
:10674000441840222146074801F0EAF80120064992
:10675000087040200149091D086010BD30050C403B
:1067600000010C4074010020ED00002070B50346CC
:106770001A463BE0B1F5802F06D3C2F3110018B9D9
:1067800023254FF480240CE0B1F5804F06D3C2F3EB
:106790000D0018B925254FF4804402E022254FF45E
:1067A00080541448C56042600120124E306100BF21
:1067B00000BF00BFBFF36F8F00BF00BF00BF00BFAF
:1067C0000C48006900F001000028F9D10948006870
:1067D00000F0400040B10748006840F04000054E1E
:1067E00030604FF0FF3070BD2244091B0029C1D139
:1067F0000020F8E700C0004010B504460023221D29
:106800002146222000F00CF810BD0000034800686B
:1068100040F00100014908607047000000C00040DE
:10682000F0B504460D46164629462EE01948C460C8
:106830004160212C02D1174F1868B8600120154F14
:10684000386100BF00BF00BFBFF36F8F00BF00BF44
:1068500000BF00BF0F48006900F001000028F9D117
:106860000C48026802F0400020B10A4802604FF074
:10687000FF30F0BD14B9074880681860222C02D19F
:1068800001F5805100E0091D1B1DB142CED300204F
:10689000EFE7000000C0004001460020114B1860E7
:1068A000114BD86018464160012018610F480068FC
:1068B0000A23B0FBF3F0420000BF101EA2F1010258
:1068C00005DD0948006900F001000028F5D1002A23
:1068D00004DC4FF0FF30034B1860704702488068BB
:1068E000FBE700006801002000C00040000000201D
:1068F00030B504460D462B46221D21460020FFF7E9
:106900008FFF30BD70B50346002011E001248440A4
:106910000C4001258540AC4209D11C684600032586
:10692000B540AC43450002FA05F52C431C60401C01
:106930001028EBD370BD000038B505460C4600208A
:10694000206069464FF44010FFF7D2FF009800F036
:106950000100D8B969461048FFF7CAFF0098C0F394
:10696000130000900D4900980968884203D80098E8
:10697000C0F30B0010B1094800680090009828602F
:10698000064800680099401A206004E00348006847
:1069900028600020206038BD04003000F400002092
:1069A0001CB5684600F00EFF9DF8000000F0800066
:1069B00078B19DF80100012804D0022803D00328F3
:1069C00002D000BF00BF00BF002001F08BF800BF65
:1069D00028E09DF80100092804D00A2810D00B28CF
:1069E0001AD11AE09DF80300032808D10E48006868
:1069F00040F080000C4908600020091F086010E08A
:106A000009481038006840F08000074910390860D4
:106A10000020091F086004E000BF002001F062F8B8
:106A200000BF00BF1CBD000018050C40002013492A
:106A300088614FF410701249086008201049083925
:106A400008604FF408700E491031086008200C49A6
:106A50000831086041200A492031086010200849A7
:106A6000183108602220064930310860502004495E
:106A7000283108604020091D0860704700000C4064
:106A800008050C40044604A001F0C6F9204601F0B8
:106A9000B5FE00BFFEE70000496E20486172642029
:106AA0004661756C742048616E646C65720A000002
:106AB00000F01F02012191404209920002F1E02200
:106AC000C2F80011704700002DE9FC5F80468A463D
:106AD000A64D474656463C68002068600837083E89
:106AE00005F10802A2494FF4401000F0ADF9A86882
:106AF0000190019800F002000090A42C02D13868A7
:106B00009C4908601CB1FF2C01D09B480460A62C56
:106B100002D13220287268E0B12C03D1A0070068AE
:106B2000A8600CE1AB2C03D0AC2C01D0AD2C23D150
:106B3000BB2001F035FE91A001F06EF900BF99482D
:106B40008069C0F300700028F9D000BF00BF00BF0B
:106B500059209549086016208905C1F80001882050
:106B6000C1F80001C006D0F800010028F0D000BF35
:106B700000F04CFA00BFFEE7AE2C03D101207D49A6
:106B80000860DCE0A02C01D0A32C23D1874800684A
:106B9000874A1268904202D28448006801E0844823
:106BA000006801460020FFF7E1FDA32C0ED18148CB
:106BB00001687F480068FFF7D9FD019840F00200A6
:106BC000A860002105F1080001F0EEF801207A49E3
:106BD00008600AE0CA2C08D17848006800F002007A
:106BE00008B1022000E00120A860A02C01D0C32C35
:106BF00021D1C32C0ED16E480068714908606D48E0
:106C0000006830B16B48016869480068FFF7AEFD65
:106C100003E094E000206A490860786869490860E8
:106C20000837083E6648006867490860654800689C
:106C30006649086048E0A12C0FD1009818B95E4859
:106C4000006800B97BE005F10801384601F0ACF8B6
:106C500058495748FFF770FE71E0FF2C33D1584870
:106C600000685B490968401A554908605548006842
:106C7000574909680844534908605148006800F4BE
:106C80007F2BBBF5401F00D359E0524A4C480168A6
:106C9000584600F0D9F85846FFF7AEFD4D4A48482F
:106CA0000168584601F0ACF845480088C0F30B0075
:106CB00047490968C1F58051884203D30BF58050DC
:106CC000FFF79AFD3BE000BF2B480068A02803D0E7
:106CD00029480068C32831D13A480068B04201D23F
:106CE0003848066837480068801B364908603448D1
:106CF000006881193A463248006801F081F831464F
:106D00003846FFF713FA2E48006881193A462C4896
:106D1000006800F099F82A48006830442849086063
:106D20002B4806602748006840B928480168264873
:106D30000068FFF7FBFB8146A5F8089000BF5146AD
:106D40004046FFF71DFC8146A5F800900948006801
:106D5000401C0849086008460068686008460068EA
:106D6000401C08600020BDE8FC9F0000B40100202A
:106D70001000300014010020180100201B5B313B83
:106D800033366D5B4C44524F4D5D506572666F7289
:106D90006D20434849505F5253542E2E2E0D0A1B2E
:106DA0005B306D000000074000010040F40000204F
:106DB000F8000020FC000020F000002000C000408F
:106DC0000001002008010020040100200C01002027
:106DD00010010020F401002010B500F009F803486C
:106DE000C06B40F004000149C86310BD00100440AE
:106DF000124A1168002003E0401C884200D906E0D6
:106E00000F4A526802F08072B2F1807FF4D000BF66
:106E10000C4A126802F001021AB94AF66512084BD0
:106E20005A6003E0401C884200D905E0044A5268D9
:106E300002F48032002AF5D000BF70470000002025
:106E400000100440F401004070B504460D4616469B
:106E500033462A4621460020FFF7E2FC70BD4FF082
:106E60008041496801434FF08042516070474FF0C4
:106E7000804040687047000010B500F0E5F85648C3
:106E8000006820F0F0004FF04021C1F840010804F4
:106E9000D0F8000240F005000904C1F8000200BF6C
:106EA0004E48006800F010000028F9D04C484B49CB
:106EB0001039086000BF4948006800F0040000284D
:106EC000F9D046483038006820F00F004FF080417C
:106ED000C1F82002414830380068C1F82002084655
:106EE000D0F8200220F0F000C1F820020846D0F8C7
:106EF000200240F03000C1F82002384840380068D5
:106F000020F00700801C3549403908603548364973
:106F1000086036490860084600683549B0FBF1F062
:106F2000344908604FF08040C06A20F0030040F40C
:106F300082704FF08041C8622F48FFF771F902203C
:106F4000FFF76EF94FF08040D0F8040240F00400E3
:106F50004FF08041C1F804022848FFF761F9002290
:106F60004FF040712548FFF743FA2548FFF758F9DD
:106F700000224FF4E0412248FFF73AFA2148FFF798
:106F80004FF900224FF480711E48FFF731FA0720B5
:106F9000FFF746F94FF08040C06B20F47F004FF0C0
:106FA0008041C8630846C06B40F4CC00C8634FF012
:106FB0004020006820F07C504FF040210860080419
:106FC000406B80B2090448630846406B0E49084391
:106FD0004FF08041486310BD4041004050020040E6
:106FE0001E42080000B0710B0800002000000020C5
:106FF00040420F00040000209B3C8042103D80571F
:107000000300C05E010080720000EEEE4FF0804091
:10701000806840F001004FF08041886070470000B8
:1070200000220021012303FA00F2064B03EB10615A
:107030000B6813430B6001238340DA430B68134052
:107040000B6070470800004000BF592007490860E6
:1070500016208905C1F800018820C1F80001C0068A
:10706000D0F800010028F0D0704700000001004077
:1070700010B50446204600F001F810BD00BF0A49D3
:10708000896901F400010029F9D10A2809D10D21EB
:10709000054A116000BF0449896901F40001002913
:1070A000F9D10149086070470000074070B5FFF74B
:1070B00065F9114908601148006800F00705022DC4
:1070C00002D10846046802E00D4850F825400B48FC
:1070D0001030006800F00F00461CB4FBF6F00949C0
:1070E000086008460068084908444900B0FBF1F010
:1070F0000649086070BD0000080000201002004032
:107100000C0000200000002020A107000400002047
:107110002048006840F470001E4908601E48C06C9A
:1071200020F00F0040F008001B49C8641B480068AD
:1071300040F480204FF08041C1F898020846D0F812
:10714000080240F00200C1F808021548D0F8040116
:1071500000F0F7301249C1F804010846D0F80801E0
:1071600000F0F730C1F808018804D0F8080220F0D8
:1071700002000A499039086000BF4FF04020D0F863
:10718000400120F0F0004FF04021C1F8400100BF65
:107190007047000088ED00E000C000409802004009
:1071A0000010044010B50122D106074800F052F843
:1071B00000BF0548006840F000500349086000BF68
:1071C0002120FFF775FC10BD0001054070B588B0A7
:1071D000044620221A496846FEF78FFF1948844268
:1071E00004D119480068C0F3022513E0174884420F
:1071F00004D115480068C0F302350BE014488442FE
:1072000004D111480068C0F3024503E00E4800684D
:10721000C0F30255022D0DD10A48844202D00B481A
:10722000844203D1FFF732F8064605E0FFF76AF81B
:10723000064601E05DF82560304608B070BD0000EC
:10724000148A0700000005401402004000010540B8
:10725000001005402DE9F04706468946174630469E
:10726000FFF7B4FF804600240025B7EB580F01D983
:10727000022406E0B8FBF7F4250E15B1681CB4FB38
:10728000F0F449EA050030607460681C6043B8FBA4
:10729000F0F0BDE8F087000000BF0848806800F00B
:1072A000010048B100BF01200449886000BF0448C4
:1072B0000068401C0249086070470000000105405A
:1072C0002C00002010B50E48C06900F4885008B1A9
:1072D000012000E0002040B101E000F0E1F80848A2
:1072E000806900F480400028F7D00548806900F0EC
:1072F000710020B14FF41051014800F003F810BDA7
:107300000000074001F480621AB1702282610822F5
:10731000826101F400621AB1426942F001024261E5
:1073200001F400520AB1084A826101F480420AB1B4
:107330001F22426401F4004222B18022C26140F265
:107340000F32826370470000010000012DE9FF4108
:1073500004460D460026B046434B0FCB8DE80F0088
:107360000027424884420AD141480068C0F30166C0
:107370004FF08040D0F82002C0F3032843E03D489E
:10738000844209D13A480068C0F38166A004D0F86D
:107390002002C0F3033836E0374884420AD134482B
:1073A00008300068C0F301666004D0F8300200F0D5
:1073B0000F0828E0314884420BD12D48083000687E
:1073C000C0F381664FF08040D0F83002C0F303185C
:1073D00019E02B4884420AD1254808300068C0F3E0
:1073E00001762004D0F83002C0F303280BE02548D2
:1073F000844208D11E4808300068860FA004D0F8E7
:107400003002C0F30338002020630320E060A0684E
:107410001D490840A060012E03D1FEF7AFFF4DF8D3
:107420002600FDB15DF8261008F10100B1FBF0F077
:1074300000EB5500B0FBF5F0871EB7F5803F0ED38B
:107440005DF8261008F10100B1FBF0F000EBC5007B
:10745000B0FBF5F00221C1EB1010606202E047F0D2
:1074600040506062BDE8FF81E489070000000740EA
:107470001402004000100740002007400030074081
:1074800000400740005007400FFFF0FF026A22F063
:10749000FF020A430262426842F40062426070479F
:1074A00010B500240E480068C4B27F2C03DD0DA087
:1074B00000F0B2FC12E05A2C0DD004DC312C07D0C5
:1074C000582C0AD105E0782C04D07A2C05D103E0A1
:1074D00003E000BF00BF00BF00BF00BF10BD000041
:1074E000000007401B5B313B33366D5B4C44524F11
:1074F0004D5D696E76616C696420636F6D6D616E60
:10750000640D0A1B5B306D0010B52D480068002823
:107510003AD02B4800682B49096888421ED92A486E
:1075200000682A494418274802682948016820460B
:1075300000F006FA234800682349091D0860244822
:107540000068204909680844214908601C4800680F
:107550001C490968401A1A49086030E01A48006856
:107560001A4944181648026819480168204600F074
:10757000E7F9134800681449091D08600020144900
:1075800008600F4908601AE01248007870B9114885
:10759000407805280AD11048846810480068844261
:1075A00004D01CB90D4800680B4988600C4800786D
:1075B00028B100200449091D08600949087010BD60
:1075C000300100204401002000050C4000010C4067
:1075D000280100201C01002000000C403C0100207C
:1075E0004C01002070B513480068134909688842AF
:1075F0001FD212480468001F00681149451822462E
:1076000029461048006800F09BF90E4800682044A5
:107610000C4908600748006820440649086008468D
:10762000006805490968884203D207480068034991
:10763000086070BD340100203801002014050C40A2
:1076400000010C402C0100204401002070B50020F6
:107650005749087000245748C479240280790444AB
:107660005448C078012806D0022811D0032852D0EF
:1076700022287BD12AE0122C01D2204600E01220E1
:1076800004464D4909680868214600F08DF98CE0F0
:10769000494800684068C578474800684068807875
:1076A00000EB0525AC420AD92C4644480068B4FBDF
:1076B000F0F100FB114010B901203D4908703E492E
:1076C00009684868214600F06FF96EE03A480068A2
:1076D00040693849097950F82100A04210D2364853
:1076E000006840693349097950F8214033480068FF
:1076F000B4FBF0F100FB114010B901202C490870D7
:107700002D490968C9682B4A127951F8220021468F
:1077100000F04AF949E027488078042827D2264813
:10772000006880682349897850F821000078A042D9
:1077300011D22148006880681E49897850F82100DC
:1077400004781E480068B4FBF0F100FB114010B94A
:10775000012017490870184909688968154A927804
:1077600051F82200214600F01FF91EE00EE01448F7
:10777000006840F0020012490860114810300068AB
:1077800040F002000E49103108600EE00C4800681D
:1077900040F002000A49086009481030006840F0D3
:1077A000020007491031086000BF00BF70BD000033
:1077B0004C0100201C010020500100204401002049
:1077C0000C050C4010B5044608220249204600F082
:1077D000B7F810BD1C01002070B54F48446800691F
:1077E00000F00F0504F0040098B104204A494860F5
:1077F0000846406900F0010028B10846006940F4DD
:10780000FA60086105E04448006920F080004249C0
:10781000086104F00100F0B101203F49486005F023
:10782000010030B10846006940F4FA60086100F0D8
:1078300085FA05F0020028B13748006920F01000F1
:107840003549086105F0040028B13348006940F467
:10785000FA603149086104F0080010B108202E498F
:10786000486004F00200002854D004F0004098B1B1
:107870004FF00040284948602848006840F0010067
:107880002649086025481030006840F0010023496F
:107890001031086000F0EAF804F4803028B14FF4A9
:1078A00080301D494860FFF72FFE04F4003028B1F6
:1078B0004FF4003018494860FFF794FE04F480202C
:1078C00018B14FF480201449486004F4002028B116
:1078D0004FF4002010494860FEF72EFF04F480109A
:1078E00018B14FF480100C49486004F4001018B12E
:1078F0004FF400100849486004F4800018B14FF4B8
:1079000080000549486004F4000018B14FF40000FD
:107910000149486070BD000000000C400C050C409F
:1079200018B50023009306E0009BCB5C009C035538
:10793000009B5B1C0093131EA2F10102F4D118BD41
:1079400018B50023009306E0009BCB5C009C035518
:10795000009B5B1C0093131EA2F10102F4D118BD21
:1079600010B50C4B18600C4B19600C4B1A60094B8E
:107970001B681B68DB790A4C23604FF4DA63094CFF
:107980002361084B90331B6843F00103C4F8903027
:1079900010BD000050010020580100205C010020B3
:1079A0004401002000000C4070B505460C461F48FD
:1079B0000068844220D91D48006828441C4908609A
:1079C0001A480068201A1B4908601B48006840F0EC
:1079D0008000194908601848083800681749461897
:1079E0001248026829463046FFF7AAFF0F48006890
:1079F0001149091F086017E000200D4908600D4972
:107A000008600D48006840F080000B4908600A4893
:107A10000838006809494618224629463046FFF7CB
:107A20008FFF0548001F046070BD00004401002066
:107A3000280100203001002008050C4000010C4006
:107A4000054A10600022054B1A60054A1160054A7C
:107A50001268054B1A6070472C0100203401002089
:107A6000380100204401002014050C4010B5082204
:107A700017491848FFF764FF1648007800F06000C7
:107A800020B1202805D0402811D109E000F046F8A7
:107A90001CE01148006810B10F480068804715E0ED
:107AA0000E48006810B10D48006880470EE00C4891
:107AB000006840F002000A49086009481030006878
:107AC00040F0020006491031086000BF00BF10BD41
:107AD00000010C401C01002058010020540100202E
:107AE0000C050C4010B50346002111E00A4C04EBD4
:107AF0000110026802F00F049C4208D1064C241DBC
:107B000004EB0110026842F00204046002E0491C28
:107B10000C29EBD300BF10BD08050C4010B50020A8
:107B200070490860704908607048007800F0800073
:107B300080281AD16D484078062806D1FFF786FDC7
:107B400000210846FFF77CFF0EE06948006840F01E
:107B500002006749086066481030006840F0020083
:107B600063491031086000BFBBE0604840780128DD
:107B700006D0032874D005284AD009286FD157E0D1
:107B80005A48807880BB594A127902F00F010020D0
:107B900027E0574A0C3A02EB0012926802F00F02FB
:107BA0008A421DD101228240524B1B681A40BAB949
:107BB0004F4A0C3A02EB0012D26822F002034C4A00
:107BC0000C3A02EB0012D360494A0C3A02EB001265
:107BD000926822F08003464A0C3A02EB001293604E
:107BE000401C0C28D5D307E0FFE7404880780128E7
:107BF00002D10020404908703D48001F006840F055
:107C000080003B49091F08600020091F086067E0E9
:107C100036488078394908603548001F006840F0D0
:107C200080003349091F08600020091F086057E0E1
:107C30002E488078324908603248006810B13148D7
:107C4000006880472A48001F006840F080002849EB
:107C5000091F08600020091F086041E000E030E0D3
:107C600022488078D8B92148007900F00F0300211C
:107C700011E01F4C241F04EB0110026802F00F04F6
:107C80009C4207D11A4C04EB0110026842F0020436
:107C9000046002E0491C0C29EBD300BF05E0134847
:107CA0008078012801D1144908701148001F00682C
:107CB00040F080000E49091F08600020091F08607D
:107CC0000EE00B48006840F00200094908600848CF
:107CD0001030006840F0020005491031086000BF14
:107CE00000BF10BD28010020300100201C01002031
:107CF0000C050C4064010020240100203C01002000
:107D000040010020600100200B48006820F00100C5
:107D100009499039C1F890004FF4FA60086140F2C7
:107D20000F1048600846006840F20F1108430249EE
:107D3000903908607047000090000C400021114A03
:107D40001160114A1160114A1160114A1160114A03
:107D50001160114A1160114900220A604A60002036
:107D60000AE00F4901EB0011896821F080020C49FB
:107D700001EB00118A60401C0C28F2D30021094A53
:107D80009160704728010020300100202C01002064
:107D90003401002038010020640100201C01002073
:107DA00000050C4000000C4070B505460C4610263E
:107DB0001148006840F010000F49086000230F4A86
:107DC00089012220FEF72CFD06F540122B464FF4C8
:107DD00040112120FEF724FD3CB106F54012234658
:107DE0004FF440110020FEF71BFD0348006820F00F
:107DF00010000149086070BD00C00040080030005C
:107E000070B504460D46164633462A4621462120C3
:107E1000FEF706FD70BD00000FB4054B10B503A9B9
:107E2000044A029800F018F810BC5DF814FB00003A
:107E30000D8507006C01002002E008C8121F08C170
:107E4000002AFAD170477047002001E001C1121FDB
:107E5000002AFBD1704700002DE9FF4F8DB00F467F
:107E60000546002606E025280BD0DDE90F129047D5
:107E70006D1C761C28780028F5D111B03046BDE87D
:107E8000F08F0024A246A1460122EC4900E0044301
:107E900015F8013F203B02FA03F00842F7D1287899
:107EA0002A2810D06FF02F022878A0F1300109297C
:107EB00014D80AEB8A0102EB410144F0020400EB02
:107EC000010A6D1CF0E701CF5FEA000A03D544F414
:107ED0000054CAF1000A44F002046D1C28782E28D0
:107EE00017D115F8010F44F004042A280ED06FF0C2
:107EF0002F022878A0F1300109290AD809EB89015D
:107F000002EB410100EB01096D1CF2E757F8049BFD
:107F10006D1C28786C280FD006DC4C2817D06828F8
:107F20000DD06A2814D104E0742810D07A280FD11B
:107F30000DE044F400140AE044F4801401E044F439
:107F400040146978814202D104F580146D1C6D1CC7
:107F50002A786E2A1FD00CDC632A31D004DC002A78
:107F60008BD0582A11D1A3E0642A68D0692A0CD199
:107F700065E0732A2ED004DC6F2A73D0702A04D1F6
:107F80009BE0752A6FD0782A6ED01046DDE90F127B
:107F90009047761C50E1C4F30250022806D0032813
:107FA00009D0042801CF09D0066045E101CFF117BF
:107FB000C0E9006140E101CF06803DE106703BE190
:107FC00017F8040B8DF8000000208DF80100EB4637
:107FD000012003E057F804BB4FF0FF3061074FF07A
:107FE000000102D40DE008F10101884649450FDA8D
:107FF0008045F8DB1BF808100029F4D108E008F1EF
:10800000010188468142FADB1BF808100029F6D1ED
:10801000DDE90F23AAEB08008146214600F036F97E
:10802000304400EB080604E0DDE90F121BF8010BF9
:108030009047B8F10108F7D221464846F7E00A21F7
:10804000C4F302534FF0000B0891022B04D001CF70
:10805000C117032B09D00AE0FF1D27F00707F7E837
:10806000020108E032E01FE020E000B2C117042B5B
:1080700001D140B2C117031E71F1000307DA4FF0BE
:10808000000CD0EB0C006CEB01012D2302E023056A
:1080900004D52B238DF82430012303E0E30701D01E
:1080A0002023F7E7984658E00A2110E010210EE05F
:1080B00010204FF0000B08900CE010214FF0000B47
:1080C00044F004044FF00809089103E008214FF040
:1080D000000B0891C4F30253022B04D001CF0021FE
:1080E000032B06D006E0FF1D27F00707F7E8020183
:1080F00003E080B2042B00D1C0B24FF00008230788
:108100002BD5702A07D0DDF820C08CF0100C5CEA6B
:108110000B0C05D00EE040238DF82430012308E03D
:1081200050EA010306D030238DF824308DF8252045
:1081300002239846DDF820C08CF0080C5CEA0B0C9A
:108140000BD150EA010301D1630706D530238DF826
:1081500024304FF00108A9F10109582A04D038A2AF
:108160000B9208AA0A920BE03AA2F9E75B46089A3A
:10817000FDF792FF0B9B9B5C0A9A521E0A921370AA
:1081800050EA0102F2D10A98ADEB000000F1200B99
:10819000600702D524F4803401E04FF00109D9458D
:1081A00002DDA9EB0B0000E0002000EB0B014144D5
:1081B0000890AAEB010AE00306D4DDE90F2321466B
:1081C000504600F063F806444FF0000908E009A9A2
:1081D00011F80900DDE90F12904709F10109761C39
:1081E000C145F4DBE0030CD5DDE90F232146504601
:1081F00000F04CF8064404E0DDE90F12302090470F
:10820000761C0899481E08900029F5DC08E00A98B9
:108210000A990078491C0A91DDE90F129047761CF3
:10822000BBF10001ABF1010BF1DC21465046DDE969
:108230000F2300F019F806446D1C1BE60928010005
:1082400030313233343536373839616263646566CC
:10825000000000003031323334353637383941428E
:1082600043444546000000002DE9F0410446002546
:108270001E461746880404D405E039462020B0473E
:108280006D1C641EF9D52846BDE8F0812DE9F0414A
:10829000044600251E469046C80301D5302700E05D
:1082A0002027880404D505E041463846B0476D1CB8
:1082B000641EF9D52846BDE8F08100007CB504466F
:1082C0000D464FF000534FF0FF324FF03061880100
:1082D000FEF71AF9019409E00198FEF7DDFA009023
:1082E0000549009848600198001D01900198A84236
:1082F000F2D3FEF7E7F87CBD0010034070B5FEF73F
:10830000B6FD04464FF08040406840F2FF1108433C
:108310004FF080414860214620A0FFF77DFD00F02E
:108320000FFA05462848006838B9002000F038FAEE
:1083300026A0FFF771FD012070BD04F001000028A8
:108340001BD00120FEF78BFDA52D07D1002000F0EA
:1083500027FA2CA0FFF760FD0120EDE7BB2D07D128
:10836000002000F01DFA35A0FFF756FD0020E3E7DE
:108370003CA0FFF751FD0020DEE704F0020038B119
:108380000220FEF76CFD43A0FFF746FD0020D3E777
:108390004EA0FFF741FD0020CEE700001B5B313B04
:1083A00033366D5B4C44524F4D5D5265736574209E
:1083B000536F75726365203C3078253038583E0D18
:1083C0000A1B5B306D000000BC4900401B5B313B69
:1083D00033366D5B4C44524F4D5D456E7465722073
:1083E000424F4F544C4F4144455220772F20427505
:1083F00074746F6E20707265737365640D0A1B5B15
:10840000306D00001B5B313B33366D5B4C44524F8B
:108410004D5D456E74657220424F4F544C4F414440
:1084200045522066726F6D204150504C4943415473
:10843000494F4E0D0A1B5B306D0000001B5B313B4A
:1084400033366D5B4C44524F4D5D557067726164BD
:10845000652066696E69736865642E2E2E0D0A1B91
:108460005B306D001B5B313B33366D5B4C44524FD0
:108470004D5D456E74657220424F4F544C4F4144E0
:1084800045522066726F6D20504F520D0A1B5B30B3
:108490006D0000001B5B313B33366D5B4C44524F2B
:1084A0004D5D456E74657220424F4F544C4F4144B0
:1084B00045522066726F6D206E52455345542070B0
:1084C000696E0D0A1B5B306D000000001B5B313BC9
:1084D00033366D5B4C44524F4D5D456E7465722072
:1084E000424F4F544C4F414445522066726F6D20AD
:1084F000756E68616E646C65207265736574207357
:108500006F757263650D0A1B5B306D0070B50446B4
:108510000D462046FEF7ACFD204670BDFEF7ACFCD4
:10852000FEF73CF8FEF73EFEFDF768FE494800689E
:1085300040F004004FF08041C1F80402FEF766F9F4
:108540004548006840F00800434908604FF4EC20BB
:108550004249086042494348FEF7EEF9FFF7CEFE74
:1085600038B900F09FF900B141E03FA0FFF754FC9B
:108570000EE03DA0FFF750FC45A0FFF74DFC00BF0B
:108580004F48006840F080404D49086000BF00BF80
:1085900000224C494C48FFF7E3F9FEF747FAFFF792
:1085A000B3FB3520FEF784FA20E048480078012824
:1085B0000AD140214648FEF787FAFEF7A7F80020C7
:1085C00042490870434908604248006805280DD9AF
:1085D00041A0FFF721FC00BF4B488069C0F3007049
:1085E0000028F9D0FEF730FDFEF710FDDDE747A0CB
:1085F000FFF712FC00BF44488069C0F300700028F8
:10860000F9D000204C4A12680A23B2FBF3F2510061
:1086100000224A4B1A602E220F4BDA601A46506035
:1086200001221A6103E00C4A126902B907E00A1E2E
:10863000A1F10101F7D1521E404B1A6000BF06485C
:10864000006820F0020004490860022041078860A9
:1086500000BFFEE70402004000C00040F40000201C
:10866000FC000020F80000201B5B313B33366D5BC3
:108670004C44524F4D5D5374617920696E20424FD6
:108680004F544C4F414445520D0A1B5B306D000066
:108690001B5B313B33366D5B4C44524F4D5D54692F
:1086A0006D652D6F757420636F756E7465722073C0
:1086B000746172742E2E2E2E0D0A1B5B306D00001D
:1086C00000010540A1690700C8890700ED000020EE
:1086D000740100202C0000201B5B313B33366D5BA6
:1086E0004C44524F4D5D54696D652D6F75742C204F
:1086F000706572666F726D20434849505F525354E3
:108700000D0A1B5B306D0000000007401B5B313B16
:1087100033366D5B4C44524F4D5D4A756D7020741D
:108720006F203C4150504C49434154494F4E3E0DFF
:108730000A1B5B306D000000000000206801002073
:1087400010B5FEF749FB4AF665100949486000BFBD
:108750000748406800F480300028F9D00448006CD5
:10876000C4B2214603A0FFF757FB204610BD00000E
:10877000001004401B5B313B33366D5B4C44524F61
:108780004D5D52656164204D616769635461672086
:108790003C3078253032583E0D0A1B5B306D0000AE
:1087A00010B50446FEF718FB4AF665100749486005
:1087B00000BF0648406800F480300028F9D0034824
:1087C0000464214602A0FFF727FB10BD00100440FF
:1087D0001B5B313B33366D5B4C44524F4D5D5772E2
:1087E000697465204D61676963546167203C307826
:1087F000253032583E0D0A1B5B306D0010B5044623
:1088000010A02168FFF708FB11A06168FFF704FBC7
:1088100012A0A168FFF700FB13A0E168FFF7FCFAC4
:1088200014A02169FFF7F8FA15A06169FFF7F4FABF
:1088300016A0A169FFF7F0FA17A0E169FFF7ECFABB
:1088400010BD0000723020203D20307825780A00CD
:10885000723120203D20307825780A0072322020A5
:108860003D20307825780A00723320203D20307872
:1088700025780A00723132203D20307825780A00B0
:108880006C7220203D20307825780A00706320200B
:108890003D20307825780A00707372203D203078B2
:1088A00025780A0070B512A0FFF7B6FA19480068DB
:1088B000011F0020FFF702FD0446214616A0FFF726
:1088C000ABFA14490968081FFDF7E6FF054629467B
:1088D0001CA0FFF7A1FAAC4204D125A0FFF79CFA37
:1088E000012070BD2DA0FFF797FA0020F9E70000E6
:1088F0001B5B313B33366D5B4C44524F4D5D5665CF
:108900007269667920436865636B73756D0D0A1B28
:108910005B306D00F40000201B5B313B33366D5B38
:108920004C44524F4D5D436163756C6174656420C6
:108930002E2E2E2E2E3C3078253038583E0D0A1B18
:108940005B306D001B5B313B33366D5B4C44524FEB
:108950004D5D496E204150524F4D202E2E2E2E2E11
:108960002E3C3078253038583E0D0A1B5B306D00A8
:108970001B5B313B33366D5B4C44524F4D5D56654E
:1089800072696679202E2E2E2E2E2E2E2E3C5041D0
:1089900053533E0D0A1B5B306D0000001B5B313BE7
:1089A00033366D5B4C44524F4D5D56657269667946
:1089B000202E2E2E2E2E2E2E2E3C4641494C3E0D84
:1089C0000A1B5B306D0000004D0000205F0000209E
:1089D000B8000020C8000020AC000020D400002017
:1089E000E0000020001BB700000000000080000035
:1089F000001BB700001BB700000000000080000053
:108A0000001BB700001BB700000000000080000042
:108A1000001BB700001BB700008000000000000032
:108A2000000000000000000010270000000000000F
:108A3000001BB700F40110000000002074010000CA
:108A4000A46107009C021000740100208420000033
:048A5000487E070055
:020000040010EA
:10000000F8210020316007007160070015600700CB
:100010007560070077600700796007000000000046
:100020000000000000000000000000007B600700EE
:100030007D600700000000007F600700816007000E
:100040008360070083600700836007008360070008
:1000500083600700836007008360070083600700F8
:1000600083600700836007008360070083600700E8
:1000700083600700836007008360070083600700D8
:1000800083600700836007008360070083600700C8
:1000900083600700836007008360070083600700B8
:1000A00083600700836007008360070083600700A8
:1000B0008360070083600700836007008360070098
:1000C0008360070099720700836007008360070060
:1000D000C572070083600700836007008360070024
:1000E0008360070083600700836007008360070068
:1000F0008360070083600700836007008360070058
:100100008360070083600700836007008360070047
:1001100083600700D97707008360070083600700CA
:100120008360070083600700836007008360070027
:100130008360070083600700836007008360070017
:100140008360070083600700836007008360070007
:1001500083600700836007008360070083600700F7
:1001600083600700836007008360070083600700E7
:1001700083600700836007008360070083600700D7
:1001800083600700836007008360070083600700C7
:1001900083600700836007008360070083600700B7
:1001A00083600700836007008360070083600700A7
:1001B0008360070083600700836007008360070097
:1001C0008360070083600700836007008360070087
:1001D0008360070083600700836007008360070077
:1001E0008360070083600700836007008360070067
:1001F0008360070011131BB7420C19083904628091
:10020000F31027291C311206100BFF0901A1011957
:10021000012940151326FF167508954081290F12F4
:100220009136C01201100114081604223F13010276
:100230001501090229130101258032090433020343
:100240001B0921241401221D1607058103402D01DD
:100250000705020710080403090410034E12751263
:1002600076126F1A7404126E141003571250124D46
:1002700012201255125312421C050F0C303410027A
:100280000222881B208C041A9C04415A300841B277
:0C0290001D02331229C4012C022F0800AB
:04000005000760018F
:00000001FF
